{
  "_format": "hh-sol-artifact-1",
  "contractName": "NFTMarketplace",
  "sourceName": "contracts/NFTMarketplace.sol",
  "abi": [
    {
      "inputs": [],
      "stateMutability": "nonpayable",
      "type": "constructor"
    },
    {
      "anonymous": false,
      "inputs": [
        {
          "indexed": true,
          "internalType": "address",
          "name": "owner",
          "type": "address"
        },
        {
          "indexed": true,
          "internalType": "address",
          "name": "approved",
          "type": "address"
        },
        {
          "indexed": true,
          "internalType": "uint256",
          "name": "tokenId",
          "type": "uint256"
        }
      ],
      "name": "Approval",
      "type": "event"
    },
    {
      "anonymous": false,
      "inputs": [
        {
          "indexed": true,
          "internalType": "address",
          "name": "owner",
          "type": "address"
        },
        {
          "indexed": true,
          "internalType": "address",
          "name": "operator",
          "type": "address"
        },
        {
          "indexed": false,
          "internalType": "bool",
          "name": "approved",
          "type": "bool"
        }
      ],
      "name": "ApprovalForAll",
      "type": "event"
    },
    {
      "anonymous": false,
      "inputs": [
        {
          "indexed": true,
          "internalType": "uint256",
          "name": "tokenId",
          "type": "uint256"
        },
        {
          "indexed": false,
          "internalType": "address",
          "name": "seller",
          "type": "address"
        },
        {
          "indexed": false,
          "internalType": "address",
          "name": "owner",
          "type": "address"
        },
        {
          "indexed": false,
          "internalType": "uint256",
          "name": "price",
          "type": "uint256"
        },
        {
          "indexed": false,
          "internalType": "bool",
          "name": "sold",
          "type": "bool"
        }
      ],
      "name": "MarketItemCreated",
      "type": "event"
    },
    {
      "anonymous": false,
      "inputs": [
        {
          "indexed": true,
          "internalType": "address",
          "name": "from",
          "type": "address"
        },
        {
          "indexed": true,
          "internalType": "address",
          "name": "to",
          "type": "address"
        },
        {
          "indexed": true,
          "internalType": "uint256",
          "name": "tokenId",
          "type": "uint256"
        }
      ],
      "name": "Transfer",
      "type": "event"
    },
    {
      "inputs": [
        {
          "internalType": "address",
          "name": "to",
          "type": "address"
        },
        {
          "internalType": "uint256",
          "name": "tokenId",
          "type": "uint256"
        }
      ],
      "name": "approve",
      "outputs": [],
      "stateMutability": "nonpayable",
      "type": "function"
    },
    {
      "inputs": [
        {
          "internalType": "address",
          "name": "owner",
          "type": "address"
        }
      ],
      "name": "balanceOf",
      "outputs": [
        {
          "internalType": "uint256",
          "name": "",
          "type": "uint256"
        }
      ],
      "stateMutability": "view",
      "type": "function"
    },
    {
      "inputs": [
        {
          "internalType": "uint256",
          "name": "tokenId",
          "type": "uint256"
        }
      ],
      "name": "createMarketSale",
      "outputs": [],
      "stateMutability": "payable",
      "type": "function"
    },
    {
      "inputs": [
        {
          "internalType": "string",
          "name": "tokenURI",
          "type": "string"
        },
        {
          "internalType": "uint256",
          "name": "price",
          "type": "uint256"
        }
      ],
      "name": "createToken",
      "outputs": [
        {
          "internalType": "uint256",
          "name": "",
          "type": "uint256"
        }
      ],
      "stateMutability": "payable",
      "type": "function"
    },
    {
      "inputs": [],
      "name": "fetchItemsListed",
      "outputs": [
        {
          "components": [
            {
              "internalType": "uint256",
              "name": "tokenId",
              "type": "uint256"
            },
            {
              "internalType": "address payable",
              "name": "seller",
              "type": "address"
            },
            {
              "internalType": "address payable",
              "name": "owner",
              "type": "address"
            },
            {
              "internalType": "uint256",
              "name": "price",
              "type": "uint256"
            },
            {
              "internalType": "bool",
              "name": "sold",
              "type": "bool"
            }
          ],
          "internalType": "struct NFTMarketplace.MarketItem[]",
          "name": "",
          "type": "tuple[]"
        }
      ],
      "stateMutability": "view",
      "type": "function"
    },
    {
      "inputs": [],
      "name": "fetchMarketItems",
      "outputs": [
        {
          "components": [
            {
              "internalType": "uint256",
              "name": "tokenId",
              "type": "uint256"
            },
            {
              "internalType": "address payable",
              "name": "seller",
              "type": "address"
            },
            {
              "internalType": "address payable",
              "name": "owner",
              "type": "address"
            },
            {
              "internalType": "uint256",
              "name": "price",
              "type": "uint256"
            },
            {
              "internalType": "bool",
              "name": "sold",
              "type": "bool"
            }
          ],
          "internalType": "struct NFTMarketplace.MarketItem[]",
          "name": "",
          "type": "tuple[]"
        }
      ],
      "stateMutability": "view",
      "type": "function"
    },
    {
      "inputs": [],
      "name": "fetchMyNFTs",
      "outputs": [
        {
          "components": [
            {
              "internalType": "uint256",
              "name": "tokenId",
              "type": "uint256"
            },
            {
              "internalType": "address payable",
              "name": "seller",
              "type": "address"
            },
            {
              "internalType": "address payable",
              "name": "owner",
              "type": "address"
            },
            {
              "internalType": "uint256",
              "name": "price",
              "type": "uint256"
            },
            {
              "internalType": "bool",
              "name": "sold",
              "type": "bool"
            }
          ],
          "internalType": "struct NFTMarketplace.MarketItem[]",
          "name": "",
          "type": "tuple[]"
        }
      ],
      "stateMutability": "view",
      "type": "function"
    },
    {
      "inputs": [
        {
          "internalType": "uint256",
          "name": "tokenId",
          "type": "uint256"
        }
      ],
      "name": "getApproved",
      "outputs": [
        {
          "internalType": "address",
          "name": "",
          "type": "address"
        }
      ],
      "stateMutability": "view",
      "type": "function"
    },
    {
      "inputs": [],
      "name": "getListingPrice",
      "outputs": [
        {
          "internalType": "uint256",
          "name": "",
          "type": "uint256"
        }
      ],
      "stateMutability": "view",
      "type": "function"
    },
    {
      "inputs": [
        {
          "internalType": "address",
          "name": "owner",
          "type": "address"
        },
        {
          "internalType": "address",
          "name": "operator",
          "type": "address"
        }
      ],
      "name": "isApprovedForAll",
      "outputs": [
        {
          "internalType": "bool",
          "name": "",
          "type": "bool"
        }
      ],
      "stateMutability": "view",
      "type": "function"
    },
    {
      "inputs": [],
      "name": "name",
      "outputs": [
        {
          "internalType": "string",
          "name": "",
          "type": "string"
        }
      ],
      "stateMutability": "view",
      "type": "function"
    },
    {
      "inputs": [
        {
          "internalType": "uint256",
          "name": "tokenId",
          "type": "uint256"
        }
      ],
      "name": "ownerOf",
      "outputs": [
        {
          "internalType": "address",
          "name": "",
          "type": "address"
        }
      ],
      "stateMutability": "view",
      "type": "function"
    },
    {
      "inputs": [
        {
          "internalType": "uint256",
          "name": "tokenId",
          "type": "uint256"
        },
        {
          "internalType": "uint256",
          "name": "price",
          "type": "uint256"
        }
      ],
      "name": "resellToken",
      "outputs": [],
      "stateMutability": "payable",
      "type": "function"
    },
    {
      "inputs": [
        {
          "internalType": "address",
          "name": "from",
          "type": "address"
        },
        {
          "internalType": "address",
          "name": "to",
          "type": "address"
        },
        {
          "internalType": "uint256",
          "name": "tokenId",
          "type": "uint256"
        }
      ],
      "name": "safeTransferFrom",
      "outputs": [],
      "stateMutability": "nonpayable",
      "type": "function"
    },
    {
      "inputs": [
        {
          "internalType": "address",
          "name": "from",
          "type": "address"
        },
        {
          "internalType": "address",
          "name": "to",
          "type": "address"
        },
        {
          "internalType": "uint256",
          "name": "tokenId",
          "type": "uint256"
        },
        {
          "internalType": "bytes",
          "name": "_data",
          "type": "bytes"
        }
      ],
      "name": "safeTransferFrom",
      "outputs": [],
      "stateMutability": "nonpayable",
      "type": "function"
    },
    {
      "inputs": [
        {
          "internalType": "address",
          "name": "operator",
          "type": "address"
        },
        {
          "internalType": "bool",
          "name": "approved",
          "type": "bool"
        }
      ],
      "name": "setApprovalForAll",
      "outputs": [],
      "stateMutability": "nonpayable",
      "type": "function"
    },
    {
      "inputs": [
        {
          "internalType": "bytes4",
          "name": "interfaceId",
          "type": "bytes4"
        }
      ],
      "name": "supportsInterface",
      "outputs": [
        {
          "internalType": "bool",
          "name": "",
          "type": "bool"
        }
      ],
      "stateMutability": "view",
      "type": "function"
    },
    {
      "inputs": [],
      "name": "symbol",
      "outputs": [
        {
          "internalType": "string",
          "name": "",
          "type": "string"
        }
      ],
      "stateMutability": "view",
      "type": "function"
    },
    {
      "inputs": [
        {
          "internalType": "uint256",
          "name": "tokenId",
          "type": "uint256"
        }
      ],
      "name": "tokenURI",
      "outputs": [
        {
          "internalType": "string",
          "name": "",
          "type": "string"
        }
      ],
      "stateMutability": "view",
      "type": "function"
    },
    {
      "inputs": [
        {
          "internalType": "address",
          "name": "from",
          "type": "address"
        },
        {
          "internalType": "address",
          "name": "to",
          "type": "address"
        },
        {
          "internalType": "uint256",
          "name": "tokenId",
          "type": "uint256"
        }
      ],
      "name": "transferFrom",
      "outputs": [],
      "stateMutability": "nonpayable",
      "type": "function"
    },
    {
      "inputs": [
        {
          "internalType": "uint256",
          "name": "_listingPrice",
          "type": "uint256"
        }
      ],
      "name": "updateListingPrice",
      "outputs": [],
      "stateMutability": "payable",
      "type": "function"
    }
  ],
  "bytecode": "0x60806040526658d15e176280006009553480156200001c57600080fd5b506040518060400160405280601081526020017f4d657461766572736520546f6b656e73000000000000000000000000000000008152506040518060400160405280600481526020017f4d4554540000000000000000000000000000000000000000000000000000000081525081600090816200009a919062000370565b508060019081620000ac919062000370565b50505033600a60006101000a81548173ffffffffffffffffffffffffffffffffffffffff021916908373ffffffffffffffffffffffffffffffffffffffff16021790555062000457565b600081519050919050565b7f4e487b7100000000000000000000000000000000000000000000000000000000600052604160045260246000fd5b7f4e487b7100000000000000000000000000000000000000000000000000000000600052602260045260246000fd5b600060028204905060018216806200017857607f821691505b6020821081036200018e576200018d62000130565b5b50919050565b60008190508160005260206000209050919050565b60006020601f8301049050919050565b600082821b905092915050565b600060088302620001f87fffffffffffffffffffffffffffffffffffffffffffffffffffffffffffffffff82620001b9565b620002048683620001b9565b95508019841693508086168417925050509392505050565b6000819050919050565b6000819050919050565b6000620002516200024b62000245846200021c565b62000226565b6200021c565b9050919050565b6000819050919050565b6200026d8362000230565b620002856200027c8262000258565b848454620001c6565b825550505050565b600090565b6200029c6200028d565b620002a981848462000262565b505050565b5b81811015620002d157620002c560008262000292565b600181019050620002af565b5050565b601f8211156200032057620002ea8162000194565b620002f584620001a9565b8101602085101562000305578190505b6200031d6200031485620001a9565b830182620002ae565b50505b505050565b600082821c905092915050565b6000620003456000198460080262000325565b1980831691505092915050565b600062000360838362000332565b9150826002028217905092915050565b6200037b82620000f6565b67ffffffffffffffff81111562000397576200039662000101565b5b620003a382546200015f565b620003b0828285620002d5565b600060209050601f831160018114620003e85760008415620003d3578287015190505b620003df858262000352565b8655506200044f565b601f198416620003f88662000194565b60005b828110156200042257848901518255600182019150602085019450602081019050620003fb565b868310156200044257848901516200043e601f89168262000332565b8355505b6001600288020188555050505b505050505050565b61443d80620004676000396000f3fe60806040526004361061012a5760003560e01c80636352211e116100ab578063ae677aa31161006f578063ae677aa3146103f9578063b88d4fde14610415578063be9af5361461043e578063c87b56dd1461045a578063e219fc7514610497578063e985e9c5146104b35761012a565b80636352211e146102fb57806370a082311461033857806372b3b6201461037557806395d89b41146103a5578063a22cb465146103d05761012a565b806312e85585116100f257806312e8558514610228578063202e37401461025357806323b872dd1461027e57806342842e0e146102a757806345f8fa80146102d05761012a565b806301ffc9a71461012f57806306fdde031461016c578063081812fc14610197578063095ea7b3146101d45780630f08efe0146101fd575b600080fd5b34801561013b57600080fd5b5061015660048036038101906101519190612a31565b6104f0565b6040516101639190612a79565b60405180910390f35b34801561017857600080fd5b506101816105d2565b60405161018e9190612b24565b60405180910390f35b3480156101a357600080fd5b506101be60048036038101906101b99190612b7c565b610664565b6040516101cb9190612bea565b60405180910390f35b3480156101e057600080fd5b506101fb60048036038101906101f69190612c31565b6106e9565b005b34801561020957600080fd5b50610212610800565b60405161021f9190612dc7565b60405180910390f35b34801561023457600080fd5b5061023d610a68565b60405161024a9190612df8565b60405180910390f35b34801561025f57600080fd5b50610268610a72565b6040516102759190612dc7565b60405180910390f35b34801561028a57600080fd5b506102a560048036038101906102a09190612e13565b610d5e565b005b3480156102b357600080fd5b506102ce60048036038101906102c99190612e13565b610dbe565b005b3480156102dc57600080fd5b506102e5610dde565b6040516102f29190612dc7565b60405180910390f35b34801561030757600080fd5b50610322600480360381019061031d9190612b7c565b6110ca565b60405161032f9190612bea565b60405180910390f35b34801561034457600080fd5b5061035f600480360381019061035a9190612e66565b61117b565b60405161036c9190612df8565b60405180910390f35b61038f600480360381019061038a9190612fc8565b611232565b60405161039c9190612df8565b60405180910390f35b3480156103b157600080fd5b506103ba611274565b6040516103c79190612b24565b60405180910390f35b3480156103dc57600080fd5b506103f760048036038101906103f29190613050565b611306565b005b610413600480360381019061040e9190612b7c565b61131c565b005b34801561042157600080fd5b5061043c60048036038101906104379190613131565b6113b6565b005b61045860048036038101906104539190612b7c565b611418565b005b34801561046657600080fd5b50610481600480360381019061047c9190612b7c565b611650565b60405161048e9190612b24565b60405180910390f35b6104b160048036038101906104ac91906131b4565b6117a1565b005b3480156104bf57600080fd5b506104da60048036038101906104d591906131f4565b611996565b6040516104e79190612a79565b60405180910390f35b60007f80ac58cd000000000000000000000000000000000000000000000000000000007bffffffffffffffffffffffffffffffffffffffffffffffffffffffff1916827bffffffffffffffffffffffffffffffffffffffffffffffffffffffff191614806105bb57507f5b5e139f000000000000000000000000000000000000000000000000000000007bffffffffffffffffffffffffffffffffffffffffffffffffffffffff1916827bffffffffffffffffffffffffffffffffffffffffffffffffffffffff1916145b806105cb57506105ca82611a2a565b5b9050919050565b6060600080546105e190613263565b80601f016020809104026020016040519081016040528092919081815260200182805461060d90613263565b801561065a5780601f1061062f5761010080835404028352916020019161065a565b820191906000526020600020905b81548152906001019060200180831161063d57829003601f168201915b5050505050905090565b600061066f82611a94565b6106ae576040517f08c379a00000000000000000000000000000000000000000000000000000000081526004016106a590613306565b60405180910390fd5b6004600083815260200190815260200160002060009054906101000a900473ffffffffffffffffffffffffffffffffffffffff169050919050565b60006106f4826110ca565b90508073ffffffffffffffffffffffffffffffffffffffff168373ffffffffffffffffffffffffffffffffffffffff1603610764576040517f08c379a000000000000000000000000000000000000000000000000000000000815260040161075b90613398565b60405180910390fd5b8073ffffffffffffffffffffffffffffffffffffffff16610783611b00565b73ffffffffffffffffffffffffffffffffffffffff1614806107b257506107b1816107ac611b00565b611996565b5b6107f1576040517f08c379a00000000000000000000000000000000000000000000000000000000081526004016107e89061342a565b60405180910390fd5b6107fb8383611b08565b505050565b6060600061080e6007611bc1565b9050600061081c6008611bc1565b6108266007611bc1565b6108309190613479565b90506000808267ffffffffffffffff81111561084f5761084e612e9d565b5b60405190808252806020026020018201604052801561088857816020015b610875612968565b81526020019060019003908161086d5790505b50905060005b84811015610a5d573073ffffffffffffffffffffffffffffffffffffffff16600b60006001846108be91906134ad565b815260200190815260200160002060020160009054906101000a900473ffffffffffffffffffffffffffffffffffffffff1673ffffffffffffffffffffffffffffffffffffffff1603610a4a57600060018261091a91906134ad565b90506000600b60008381526020019081526020016000209050806040518060a0016040529081600082015481526020016001820160009054906101000a900473ffffffffffffffffffffffffffffffffffffffff1673ffffffffffffffffffffffffffffffffffffffff1673ffffffffffffffffffffffffffffffffffffffff1681526020016002820160009054906101000a900473ffffffffffffffffffffffffffffffffffffffff1673ffffffffffffffffffffffffffffffffffffffff1673ffffffffffffffffffffffffffffffffffffffff168152602001600382015481526020016004820160009054906101000a900460ff161515151581525050848681518110610a2d57610a2c6134e1565b5b6020026020010181905250600185610a4591906134ad565b945050505b8080610a5590613510565b91505061088e565b508094505050505090565b6000600954905090565b60606000610a806007611bc1565b905060008060005b83811015610b28573373ffffffffffffffffffffffffffffffffffffffff16600b6000600184610ab891906134ad565b815260200190815260200160002060020160009054906101000a900473ffffffffffffffffffffffffffffffffffffffff1673ffffffffffffffffffffffffffffffffffffffff1603610b1557600183610b1291906134ad565b92505b8080610b2090613510565b915050610a88565b5060008267ffffffffffffffff811115610b4557610b44612e9d565b5b604051908082528060200260200182016040528015610b7e57816020015b610b6b612968565b815260200190600190039081610b635790505b50905060005b84811015610d53573373ffffffffffffffffffffffffffffffffffffffff16600b6000600184610bb491906134ad565b815260200190815260200160002060020160009054906101000a900473ffffffffffffffffffffffffffffffffffffffff1673ffffffffffffffffffffffffffffffffffffffff1603610d40576000600182610c1091906134ad565b90506000600b60008381526020019081526020016000209050806040518060a0016040529081600082015481526020016001820160009054906101000a900473ffffffffffffffffffffffffffffffffffffffff1673ffffffffffffffffffffffffffffffffffffffff1673ffffffffffffffffffffffffffffffffffffffff1681526020016002820160009054906101000a900473ffffffffffffffffffffffffffffffffffffffff1673ffffffffffffffffffffffffffffffffffffffff1673ffffffffffffffffffffffffffffffffffffffff168152602001600382015481526020016004820160009054906101000a900460ff161515151581525050848681518110610d2357610d226134e1565b5b6020026020010181905250600185610d3b91906134ad565b945050505b8080610d4b90613510565b915050610b84565b508094505050505090565b610d6f610d69611b00565b82611bcf565b610dae576040517f08c379a0000000000000000000000000000000000000000000000000000000008152600401610da5906135ca565b60405180910390fd5b610db9838383611cad565b505050565b610dd9838383604051806020016040528060008152506113b6565b505050565b60606000610dec6007611bc1565b905060008060005b83811015610e94573373ffffffffffffffffffffffffffffffffffffffff16600b6000600184610e2491906134ad565b815260200190815260200160002060010160009054906101000a900473ffffffffffffffffffffffffffffffffffffffff1673ffffffffffffffffffffffffffffffffffffffff1603610e8157600183610e7e91906134ad565b92505b8080610e8c90613510565b915050610df4565b5060008267ffffffffffffffff811115610eb157610eb0612e9d565b5b604051908082528060200260200182016040528015610eea57816020015b610ed7612968565b815260200190600190039081610ecf5790505b50905060005b848110156110bf573373ffffffffffffffffffffffffffffffffffffffff16600b6000600184610f2091906134ad565b815260200190815260200160002060010160009054906101000a900473ffffffffffffffffffffffffffffffffffffffff1673ffffffffffffffffffffffffffffffffffffffff16036110ac576000600182610f7c91906134ad565b90506000600b60008381526020019081526020016000209050806040518060a0016040529081600082015481526020016001820160009054906101000a900473ffffffffffffffffffffffffffffffffffffffff1673ffffffffffffffffffffffffffffffffffffffff1673ffffffffffffffffffffffffffffffffffffffff1681526020016002820160009054906101000a900473ffffffffffffffffffffffffffffffffffffffff1673ffffffffffffffffffffffffffffffffffffffff1673ffffffffffffffffffffffffffffffffffffffff168152602001600382015481526020016004820160009054906101000a900460ff16151515158152505084868151811061108f5761108e6134e1565b5b60200260200101819052506001856110a791906134ad565b945050505b80806110b790613510565b915050610ef0565b508094505050505090565b6000806002600084815260200190815260200160002060009054906101000a900473ffffffffffffffffffffffffffffffffffffffff169050600073ffffffffffffffffffffffffffffffffffffffff168173ffffffffffffffffffffffffffffffffffffffff1603611172576040517f08c379a00000000000000000000000000000000000000000000000000000000081526004016111699061365c565b60405180910390fd5b80915050919050565b60008073ffffffffffffffffffffffffffffffffffffffff168273ffffffffffffffffffffffffffffffffffffffff16036111eb576040517f08c379a00000000000000000000000000000000000000000000000000000000081526004016111e2906136ee565b60405180910390fd5b600360008373ffffffffffffffffffffffffffffffffffffffff1673ffffffffffffffffffffffffffffffffffffffff168152602001908152602001600020549050919050565b600061123e6007611f13565b600061124a6007611bc1565b90506112563382611f29565b6112608185612102565b61126a818461216f565b8091505092915050565b60606001805461128390613263565b80601f01602080910402602001604051908101604052809291908181526020018280546112af90613263565b80156112fc5780601f106112d1576101008083540402835291602001916112fc565b820191906000526020600020905b8154815290600101906020018083116112df57829003601f168201915b5050505050905090565b611318611311611b00565b8383612372565b5050565b3373ffffffffffffffffffffffffffffffffffffffff16600a60009054906101000a900473ffffffffffffffffffffffffffffffffffffffff1673ffffffffffffffffffffffffffffffffffffffff16146113ac576040517f08c379a00000000000000000000000000000000000000000000000000000000081526004016113a390613780565b60405180910390fd5b8060098190555050565b6113c76113c1611b00565b83611bcf565b611406576040517f08c379a00000000000000000000000000000000000000000000000000000000081526004016113fd906135ca565b60405180910390fd5b611412848484846124de565b50505050565b6000600b6000838152602001908152602001600020600301549050803414611475576040517f08c379a000000000000000000000000000000000000000000000000000000000815260040161146c90613812565b60405180910390fd5b33600b600084815260200190815260200160002060020160006101000a81548173ffffffffffffffffffffffffffffffffffffffff021916908373ffffffffffffffffffffffffffffffffffffffff1602179055506001600b600084815260200190815260200160002060040160006101000a81548160ff0219169083151502179055506000600b600084815260200190815260200160002060010160006101000a81548173ffffffffffffffffffffffffffffffffffffffff021916908373ffffffffffffffffffffffffffffffffffffffff1602179055506115596008611f13565b611564303384611cad565b600a60009054906101000a900473ffffffffffffffffffffffffffffffffffffffff1673ffffffffffffffffffffffffffffffffffffffff166108fc6009549081150290604051600060405180830381858888f193505050501580156115ce573d6000803e3d6000fd5b50600b600083815260200190815260200160002060010160009054906101000a900473ffffffffffffffffffffffffffffffffffffffff1673ffffffffffffffffffffffffffffffffffffffff166108fc349081150290604051600060405180830381858888f1935050505015801561164b573d6000803e3d6000fd5b505050565b606061165b82611a94565b61169a576040517f08c379a0000000000000000000000000000000000000000000000000000000008152600401611691906138a4565b60405180910390fd5b60006006600084815260200190815260200160002080546116ba90613263565b80601f01602080910402602001604051908101604052809291908181526020018280546116e690613263565b80156117335780601f1061170857610100808354040283529160200191611733565b820191906000526020600020905b81548152906001019060200180831161171657829003601f168201915b50505050509050600061174461253a565b9050600081510361175957819250505061179c565b60008251111561178e578082604051602001611776929190613900565b6040516020818303038152906040529250505061179c565b61179784612551565b925050505b919050565b3373ffffffffffffffffffffffffffffffffffffffff16600b600084815260200190815260200160002060020160009054906101000a900473ffffffffffffffffffffffffffffffffffffffff1673ffffffffffffffffffffffffffffffffffffffff1614611845576040517f08c379a000000000000000000000000000000000000000000000000000000000815260040161183c90613996565b60405180910390fd5b6009543414611889576040517f08c379a000000000000000000000000000000000000000000000000000000000815260040161188090613a28565b60405180910390fd5b6000600b600084815260200190815260200160002060040160006101000a81548160ff02191690831515021790555080600b60008481526020019081526020016000206003018190555033600b600084815260200190815260200160002060010160006101000a81548173ffffffffffffffffffffffffffffffffffffffff021916908373ffffffffffffffffffffffffffffffffffffffff16021790555030600b600084815260200190815260200160002060020160006101000a81548173ffffffffffffffffffffffffffffffffffffffff021916908373ffffffffffffffffffffffffffffffffffffffff16021790555061198760086125f8565b611992333084611cad565b5050565b6000600560008473ffffffffffffffffffffffffffffffffffffffff1673ffffffffffffffffffffffffffffffffffffffff16815260200190815260200160002060008373ffffffffffffffffffffffffffffffffffffffff1673ffffffffffffffffffffffffffffffffffffffff16815260200190815260200160002060009054906101000a900460ff16905092915050565b60007f01ffc9a7000000000000000000000000000000000000000000000000000000007bffffffffffffffffffffffffffffffffffffffffffffffffffffffff1916827bffffffffffffffffffffffffffffffffffffffffffffffffffffffff1916149050919050565b60008073ffffffffffffffffffffffffffffffffffffffff166002600084815260200190815260200160002060009054906101000a900473ffffffffffffffffffffffffffffffffffffffff1673ffffffffffffffffffffffffffffffffffffffff1614159050919050565b600033905090565b816004600083815260200190815260200160002060006101000a81548173ffffffffffffffffffffffffffffffffffffffff021916908373ffffffffffffffffffffffffffffffffffffffff160217905550808273ffffffffffffffffffffffffffffffffffffffff16611b7b836110ca565b73ffffffffffffffffffffffffffffffffffffffff167f8c5be1e5ebec7d5bd14f71427d1e84f3dd0314c0f7b2291e5b200ac8c7c3b92560405160405180910390a45050565b600081600001549050919050565b6000611bda82611a94565b611c19576040517f08c379a0000000000000000000000000000000000000000000000000000000008152600401611c1090613aba565b60405180910390fd5b6000611c24836110ca565b90508073ffffffffffffffffffffffffffffffffffffffff168473ffffffffffffffffffffffffffffffffffffffff161480611c9357508373ffffffffffffffffffffffffffffffffffffffff16611c7b84610664565b73ffffffffffffffffffffffffffffffffffffffff16145b80611ca45750611ca38185611996565b5b91505092915050565b8273ffffffffffffffffffffffffffffffffffffffff16611ccd826110ca565b73ffffffffffffffffffffffffffffffffffffffff1614611d23576040517f08c379a0000000000000000000000000000000000000000000000000000000008152600401611d1a90613b4c565b60405180910390fd5b600073ffffffffffffffffffffffffffffffffffffffff168273ffffffffffffffffffffffffffffffffffffffff1603611d92576040517f08c379a0000000000000000000000000000000000000000000000000000000008152600401611d8990613bde565b60405180910390fd5b611d9d838383612654565b611da8600082611b08565b6001600360008573ffffffffffffffffffffffffffffffffffffffff1673ffffffffffffffffffffffffffffffffffffffff1681526020019081526020016000206000828254611df89190613479565b925050819055506001600360008473ffffffffffffffffffffffffffffffffffffffff1673ffffffffffffffffffffffffffffffffffffffff1681526020019081526020016000206000828254611e4f91906134ad565b92505081905550816002600083815260200190815260200160002060006101000a81548173ffffffffffffffffffffffffffffffffffffffff021916908373ffffffffffffffffffffffffffffffffffffffff160217905550808273ffffffffffffffffffffffffffffffffffffffff168473ffffffffffffffffffffffffffffffffffffffff167fddf252ad1be2c89b69c2b068fc378daa952ba7f163c4a11628f55a4df523b3ef60405160405180910390a4611f0e838383612659565b505050565b6001816000016000828254019250508190555050565b600073ffffffffffffffffffffffffffffffffffffffff168273ffffffffffffffffffffffffffffffffffffffff1603611f98576040517f08c379a0000000000000000000000000000000000000000000000000000000008152600401611f8f90613c4a565b60405180910390fd5b611fa181611a94565b15611fe1576040517f08c379a0000000000000000000000000000000000000000000000000000000008152600401611fd890613cb6565b60405180910390fd5b611fed60008383612654565b6001600360008473ffffffffffffffffffffffffffffffffffffffff1673ffffffffffffffffffffffffffffffffffffffff168152602001908152602001600020600082825461203d91906134ad565b92505081905550816002600083815260200190815260200160002060006101000a81548173ffffffffffffffffffffffffffffffffffffffff021916908373ffffffffffffffffffffffffffffffffffffffff160217905550808273ffffffffffffffffffffffffffffffffffffffff16600073ffffffffffffffffffffffffffffffffffffffff167fddf252ad1be2c89b69c2b068fc378daa952ba7f163c4a11628f55a4df523b3ef60405160405180910390a46120fe60008383612659565b5050565b61210b82611a94565b61214a576040517f08c379a000000000000000000000000000000000000000000000000000000000815260040161214190613d48565b60405180910390fd5b8060066000848152602001908152602001600020908161216a9190613f14565b505050565b600081116121b2576040517f08c379a00000000000000000000000000000000000000000000000000000000081526004016121a990614032565b60405180910390fd5b60095434146121f6576040517f08c379a00000000000000000000000000000000000000000000000000000000081526004016121ed90613a28565b60405180910390fd5b6040518060a001604052808381526020013373ffffffffffffffffffffffffffffffffffffffff1681526020013073ffffffffffffffffffffffffffffffffffffffff16815260200182815260200160001515815250600b60008481526020019081526020016000206000820151816000015560208201518160010160006101000a81548173ffffffffffffffffffffffffffffffffffffffff021916908373ffffffffffffffffffffffffffffffffffffffff16021790555060408201518160020160006101000a81548173ffffffffffffffffffffffffffffffffffffffff021916908373ffffffffffffffffffffffffffffffffffffffff1602179055506060820151816003015560808201518160040160006101000a81548160ff02191690831515021790555090505061232f333084611cad565b817fb640004f1d14576d0c209e240cad0410e0d8c0c33a09375861fbadae2588a98d33308460006040516123669493929190614052565b60405180910390a25050565b8173ffffffffffffffffffffffffffffffffffffffff168373ffffffffffffffffffffffffffffffffffffffff16036123e0576040517f08c379a00000000000000000000000000000000000000000000000000000000081526004016123d7906140e3565b60405180910390fd5b80600560008573ffffffffffffffffffffffffffffffffffffffff1673ffffffffffffffffffffffffffffffffffffffff16815260200190815260200160002060008473ffffffffffffffffffffffffffffffffffffffff1673ffffffffffffffffffffffffffffffffffffffff16815260200190815260200160002060006101000a81548160ff0219169083151502179055508173ffffffffffffffffffffffffffffffffffffffff168373ffffffffffffffffffffffffffffffffffffffff167f17307eab39ab6107e8899845ad3d59bd9653f200f220920489ca2b5937696c31836040516124d19190612a79565b60405180910390a3505050565b6124e9848484611cad565b6124f58484848461265e565b612534576040517f08c379a000000000000000000000000000000000000000000000000000000000815260040161252b90614175565b60405180910390fd5b50505050565b606060405180602001604052806000815250905090565b606061255c82611a94565b61259b576040517f08c379a000000000000000000000000000000000000000000000000000000000815260040161259290614207565b60405180910390fd5b60006125a561253a565b905060008151116125c557604051806020016040528060008152506125f0565b806125cf846127e5565b6040516020016125e0929190613900565b6040516020818303038152906040525b915050919050565b60008160000154905060008111612644576040517f08c379a000000000000000000000000000000000000000000000000000000000815260040161263b90614273565b60405180910390fd5b6001810382600001819055505050565b505050565b505050565b600061267f8473ffffffffffffffffffffffffffffffffffffffff16612945565b156127d8578373ffffffffffffffffffffffffffffffffffffffff1663150b7a026126a8611b00565b8786866040518563ffffffff1660e01b81526004016126ca94939291906142e8565b6020604051808303816000875af192505050801561270657506040513d601f19601f820116820180604052508101906127039190614349565b60015b612788573d8060008114612736576040519150601f19603f3d011682016040523d82523d6000602084013e61273b565b606091505b506000815103612780576040517f08c379a000000000000000000000000000000000000000000000000000000000815260040161277790614175565b60405180910390fd5b805181602001fd5b63150b7a0260e01b7bffffffffffffffffffffffffffffffffffffffffffffffffffffffff1916817bffffffffffffffffffffffffffffffffffffffffffffffffffffffff1916149150506127dd565b600190505b949350505050565b60606000820361282c576040518060400160405280600181526020017f30000000000000000000000000000000000000000000000000000000000000008152509050612940565b600082905060005b6000821461285e57808061284790613510565b915050600a8261285791906143a5565b9150612834565b60008167ffffffffffffffff81111561287a57612879612e9d565b5b6040519080825280601f01601f1916602001820160405280156128ac5781602001600182028036833780820191505090505b5090505b60008514612939576001826128c59190613479565b9150600a856128d491906143d6565b60306128e091906134ad565b60f81b8183815181106128f6576128f56134e1565b5b60200101907effffffffffffffffffffffffffffffffffffffffffffffffffffffffffffff1916908160001a905350600a8561293291906143a5565b94506128b0565b8093505050505b919050565b6000808273ffffffffffffffffffffffffffffffffffffffff163b119050919050565b6040518060a0016040528060008152602001600073ffffffffffffffffffffffffffffffffffffffff168152602001600073ffffffffffffffffffffffffffffffffffffffff168152602001600081526020016000151581525090565b6000604051905090565b600080fd5b600080fd5b60007fffffffff0000000000000000000000000000000000000000000000000000000082169050919050565b612a0e816129d9565b8114612a1957600080fd5b50565b600081359050612a2b81612a05565b92915050565b600060208284031215612a4757612a466129cf565b5b6000612a5584828501612a1c565b91505092915050565b60008115159050919050565b612a7381612a5e565b82525050565b6000602082019050612a8e6000830184612a6a565b92915050565b600081519050919050565b600082825260208201905092915050565b60005b83811015612ace578082015181840152602081019050612ab3565b60008484015250505050565b6000601f19601f8301169050919050565b6000612af682612a94565b612b008185612a9f565b9350612b10818560208601612ab0565b612b1981612ada565b840191505092915050565b60006020820190508181036000830152612b3e8184612aeb565b905092915050565b6000819050919050565b612b5981612b46565b8114612b6457600080fd5b50565b600081359050612b7681612b50565b92915050565b600060208284031215612b9257612b916129cf565b5b6000612ba084828501612b67565b91505092915050565b600073ffffffffffffffffffffffffffffffffffffffff82169050919050565b6000612bd482612ba9565b9050919050565b612be481612bc9565b82525050565b6000602082019050612bff6000830184612bdb565b92915050565b612c0e81612bc9565b8114612c1957600080fd5b50565b600081359050612c2b81612c05565b92915050565b60008060408385031215612c4857612c476129cf565b5b6000612c5685828601612c1c565b9250506020612c6785828601612b67565b9150509250929050565b600081519050919050565b600082825260208201905092915050565b6000819050602082019050919050565b612ca681612b46565b82525050565b6000612cb782612ba9565b9050919050565b612cc781612cac565b82525050565b612cd681612a5e565b82525050565b60a082016000820151612cf26000850182612c9d565b506020820151612d056020850182612cbe565b506040820151612d186040850182612cbe565b506060820151612d2b6060850182612c9d565b506080820151612d3e6080850182612ccd565b50505050565b6000612d508383612cdc565b60a08301905092915050565b6000602082019050919050565b6000612d7482612c71565b612d7e8185612c7c565b9350612d8983612c8d565b8060005b83811015612dba578151612da18882612d44565b9750612dac83612d5c565b925050600181019050612d8d565b5085935050505092915050565b60006020820190508181036000830152612de18184612d69565b905092915050565b612df281612b46565b82525050565b6000602082019050612e0d6000830184612de9565b92915050565b600080600060608486031215612e2c57612e2b6129cf565b5b6000612e3a86828701612c1c565b9350506020612e4b86828701612c1c565b9250506040612e5c86828701612b67565b9150509250925092565b600060208284031215612e7c57612e7b6129cf565b5b6000612e8a84828501612c1c565b91505092915050565b600080fd5b600080fd5b7f4e487b7100000000000000000000000000000000000000000000000000000000600052604160045260246000fd5b612ed582612ada565b810181811067ffffffffffffffff82111715612ef457612ef3612e9d565b5b80604052505050565b6000612f076129c5565b9050612f138282612ecc565b919050565b600067ffffffffffffffff821115612f3357612f32612e9d565b5b612f3c82612ada565b9050602081019050919050565b82818337600083830152505050565b6000612f6b612f6684612f18565b612efd565b905082815260208101848484011115612f8757612f86612e98565b5b612f92848285612f49565b509392505050565b600082601f830112612faf57612fae612e93565b5b8135612fbf848260208601612f58565b91505092915050565b60008060408385031215612fdf57612fde6129cf565b5b600083013567ffffffffffffffff811115612ffd57612ffc6129d4565b5b61300985828601612f9a565b925050602061301a85828601612b67565b9150509250929050565b61302d81612a5e565b811461303857600080fd5b50565b60008135905061304a81613024565b92915050565b60008060408385031215613067576130666129cf565b5b600061307585828601612c1c565b92505060206130868582860161303b565b9150509250929050565b600067ffffffffffffffff8211156130ab576130aa612e9d565b5b6130b482612ada565b9050602081019050919050565b60006130d46130cf84613090565b612efd565b9050828152602081018484840111156130f0576130ef612e98565b5b6130fb848285612f49565b509392505050565b600082601f83011261311857613117612e93565b5b81356131288482602086016130c1565b91505092915050565b6000806000806080858703121561314b5761314a6129cf565b5b600061315987828801612c1c565b945050602061316a87828801612c1c565b935050604061317b87828801612b67565b925050606085013567ffffffffffffffff81111561319c5761319b6129d4565b5b6131a887828801613103565b91505092959194509250565b600080604083850312156131cb576131ca6129cf565b5b60006131d985828601612b67565b92505060206131ea85828601612b67565b9150509250929050565b6000806040838503121561320b5761320a6129cf565b5b600061321985828601612c1c565b925050602061322a85828601612c1c565b9150509250929050565b7f4e487b7100000000000000000000000000000000000000000000000000000000600052602260045260246000fd5b6000600282049050600182168061327b57607f821691505b60208210810361328e5761328d613234565b5b50919050565b7f4552433732313a20617070726f76656420717565727920666f72206e6f6e657860008201527f697374656e7420746f6b656e0000000000000000000000000000000000000000602082015250565b60006132f0602c83612a9f565b91506132fb82613294565b604082019050919050565b6000602082019050818103600083015261331f816132e3565b9050919050565b7f4552433732313a20617070726f76616c20746f2063757272656e74206f776e6560008201527f7200000000000000000000000000000000000000000000000000000000000000602082015250565b6000613382602183612a9f565b915061338d82613326565b604082019050919050565b600060208201905081810360008301526133b181613375565b9050919050565b7f4552433732313a20617070726f76652063616c6c6572206973206e6f74206f7760008201527f6e6572206e6f7220617070726f76656420666f7220616c6c0000000000000000602082015250565b6000613414603883612a9f565b915061341f826133b8565b604082019050919050565b6000602082019050818103600083015261344381613407565b9050919050565b7f4e487b7100000000000000000000000000000000000000000000000000000000600052601160045260246000fd5b600061348482612b46565b915061348f83612b46565b92508282039050818111156134a7576134a661344a565b5b92915050565b60006134b882612b46565b91506134c383612b46565b92508282019050808211156134db576134da61344a565b5b92915050565b7f4e487b7100000000000000000000000000000000000000000000000000000000600052603260045260246000fd5b600061351b82612b46565b91507fffffffffffffffffffffffffffffffffffffffffffffffffffffffffffffffff820361354d5761354c61344a565b5b600182019050919050565b7f4552433732313a207472616e736665722063616c6c6572206973206e6f74206f60008201527f776e6572206e6f7220617070726f766564000000000000000000000000000000602082015250565b60006135b4603183612a9f565b91506135bf82613558565b604082019050919050565b600060208201905081810360008301526135e3816135a7565b9050919050565b7f4552433732313a206f776e657220717565727920666f72206e6f6e657869737460008201527f656e7420746f6b656e0000000000000000000000000000000000000000000000602082015250565b6000613646602983612a9f565b9150613651826135ea565b604082019050919050565b6000602082019050818103600083015261367581613639565b9050919050565b7f4552433732313a2062616c616e636520717565727920666f7220746865207a6560008201527f726f206164647265737300000000000000000000000000000000000000000000602082015250565b60006136d8602a83612a9f565b91506136e38261367c565b604082019050919050565b60006020820190508181036000830152613707816136cb565b9050919050565b7f4f6e6c79206d61726b6574706c616365206f776e65722063616e20757064617460008201527f65206c697374696e672070726963652e00000000000000000000000000000000602082015250565b600061376a603083612a9f565b91506137758261370e565b604082019050919050565b600060208201905081810360008301526137998161375d565b9050919050565b7f506c65617365207375626d6974207468652061736b696e67207072696365206960008201527f6e206f7264657220746f20636f6d706c65746520746865207075726368617365602082015250565b60006137fc604083612a9f565b9150613807826137a0565b604082019050919050565b6000602082019050818103600083015261382b816137ef565b9050919050565b7f45524337323155524953746f726167653a2055524920717565727920666f722060008201527f6e6f6e6578697374656e7420746f6b656e000000000000000000000000000000602082015250565b600061388e603183612a9f565b915061389982613832565b604082019050919050565b600060208201905081810360008301526138bd81613881565b9050919050565b600081905092915050565b60006138da82612a94565b6138e481856138c4565b93506138f4818560208601612ab0565b80840191505092915050565b600061390c82856138cf565b915061391882846138cf565b91508190509392505050565b7f4f6e6c79206974656d206f776e65722063616e20706572666f726d207468697360008201527f206f7065726174696f6e00000000000000000000000000000000000000000000602082015250565b6000613980602a83612a9f565b915061398b82613924565b604082019050919050565b600060208201905081810360008301526139af81613973565b9050919050565b7f5072696365206d75737420626520657175616c20746f206c697374696e67207060008201527f7269636500000000000000000000000000000000000000000000000000000000602082015250565b6000613a12602483612a9f565b9150613a1d826139b6565b604082019050919050565b60006020820190508181036000830152613a4181613a05565b9050919050565b7f4552433732313a206f70657261746f7220717565727920666f72206e6f6e657860008201527f697374656e7420746f6b656e0000000000000000000000000000000000000000602082015250565b6000613aa4602c83612a9f565b9150613aaf82613a48565b604082019050919050565b60006020820190508181036000830152613ad381613a97565b9050919050565b7f4552433732313a207472616e736665722066726f6d20696e636f72726563742060008201527f6f776e6572000000000000000000000000000000000000000000000000000000602082015250565b6000613b36602583612a9f565b9150613b4182613ada565b604082019050919050565b60006020820190508181036000830152613b6581613b29565b9050919050565b7f4552433732313a207472616e7366657220746f20746865207a65726f2061646460008201527f7265737300000000000000000000000000000000000000000000000000000000602082015250565b6000613bc8602483612a9f565b9150613bd382613b6c565b604082019050919050565b60006020820190508181036000830152613bf781613bbb565b9050919050565b7f4552433732313a206d696e7420746f20746865207a65726f2061646472657373600082015250565b6000613c34602083612a9f565b9150613c3f82613bfe565b602082019050919050565b60006020820190508181036000830152613c6381613c27565b9050919050565b7f4552433732313a20746f6b656e20616c7265616479206d696e74656400000000600082015250565b6000613ca0601c83612a9f565b9150613cab82613c6a565b602082019050919050565b60006020820190508181036000830152613ccf81613c93565b9050919050565b7f45524337323155524953746f726167653a2055524920736574206f66206e6f6e60008201527f6578697374656e7420746f6b656e000000000000000000000000000000000000602082015250565b6000613d32602e83612a9f565b9150613d3d82613cd6565b604082019050919050565b60006020820190508181036000830152613d6181613d25565b9050919050565b60008190508160005260206000209050919050565b60006020601f8301049050919050565b600082821b905092915050565b600060088302613dca7fffffffffffffffffffffffffffffffffffffffffffffffffffffffffffffffff82613d8d565b613dd48683613d8d565b95508019841693508086168417925050509392505050565b6000819050919050565b6000613e11613e0c613e0784612b46565b613dec565b612b46565b9050919050565b6000819050919050565b613e2b83613df6565b613e3f613e3782613e18565b848454613d9a565b825550505050565b600090565b613e54613e47565b613e5f818484613e22565b505050565b5b81811015613e8357613e78600082613e4c565b600181019050613e65565b5050565b601f821115613ec857613e9981613d68565b613ea284613d7d565b81016020851015613eb1578190505b613ec5613ebd85613d7d565b830182613e64565b50505b505050565b600082821c905092915050565b6000613eeb60001984600802613ecd565b1980831691505092915050565b6000613f048383613eda565b9150826002028217905092915050565b613f1d82612a94565b67ffffffffffffffff811115613f3657613f35612e9d565b5b613f408254613263565b613f4b828285613e87565b600060209050601f831160018114613f7e5760008415613f6c578287015190505b613f768582613ef8565b865550613fde565b601f198416613f8c86613d68565b60005b82811015613fb457848901518255600182019150602085019450602081019050613f8f565b86831015613fd15784890151613fcd601f891682613eda565b8355505b6001600288020188555050505b505050505050565b7f5072696365206d757374206265206174206c6561737420312077656900000000600082015250565b600061401c601c83612a9f565b915061402782613fe6565b602082019050919050565b6000602082019050818103600083015261404b8161400f565b9050919050565b60006080820190506140676000830187612bdb565b6140746020830186612bdb565b6140816040830185612de9565b61408e6060830184612a6a565b95945050505050565b7f4552433732313a20617070726f766520746f2063616c6c657200000000000000600082015250565b60006140cd601983612a9f565b91506140d882614097565b602082019050919050565b600060208201905081810360008301526140fc816140c0565b9050919050565b7f4552433732313a207472616e7366657220746f206e6f6e20455243373231526560008201527f63656976657220696d706c656d656e7465720000000000000000000000000000602082015250565b600061415f603283612a9f565b915061416a82614103565b604082019050919050565b6000602082019050818103600083015261418e81614152565b9050919050565b7f4552433732314d657461646174613a2055524920717565727920666f72206e6f60008201527f6e6578697374656e7420746f6b656e0000000000000000000000000000000000602082015250565b60006141f1602f83612a9f565b91506141fc82614195565b604082019050919050565b60006020820190508181036000830152614220816141e4565b9050919050565b7f436f756e7465723a2064656372656d656e74206f766572666c6f770000000000600082015250565b600061425d601b83612a9f565b915061426882614227565b602082019050919050565b6000602082019050818103600083015261428c81614250565b9050919050565b600081519050919050565b600082825260208201905092915050565b60006142ba82614293565b6142c4818561429e565b93506142d4818560208601612ab0565b6142dd81612ada565b840191505092915050565b60006080820190506142fd6000830187612bdb565b61430a6020830186612bdb565b6143176040830185612de9565b818103606083015261432981846142af565b905095945050505050565b60008151905061434381612a05565b92915050565b60006020828403121561435f5761435e6129cf565b5b600061436d84828501614334565b91505092915050565b7f4e487b7100000000000000000000000000000000000000000000000000000000600052601260045260246000fd5b60006143b082612b46565b91506143bb83612b46565b9250826143cb576143ca614376565b5b828204905092915050565b60006143e182612b46565b91506143ec83612b46565b9250826143fc576143fb614376565b5b82820690509291505056fea26469706673582212201209fe385f3a93736b43ee99a6d0124d0ad6399661ce0f752d6e62e44b206a0764736f6c63430008110033",
  "linkReferences": {},
  "deployedLinkReferences": {}
}